:1000000000308A003E280000831A0A28A500030E4B
:10001000A6000F288312A500030EA600A6140A0846
:10002000AD008A018313A50E0408A7002008A800CC
:100030002108A9002208AA002308AB002408AC006C
:1000400083120B1E25288B1844288B1D29280B187A
:100050005B28270884002808A0002908A1002A0896
:10006000A2002B08A3002C08A4002D088A00260E4D
:1000700083008312250EA61883160900FF2383161A
:10008000900000308A00C6288B108A1129282F3052
:100090008400000803195A280130A100A001A00B18
:1000A0004F28A10B4E284A30A000A00B55285828F5
:1000B000800B4C2800340B138B138B1B5C281430E3
:1000C000AF0047208316851483128518972883165E
:1000D0009B019C131C141A08031983289B019A0185
:1000E0001C1583120B08A0008B13831655309D003E
:1000F000AA309D009C149C187B281C118312200898
:100100008B04972883169B0101309A001C158312DB
:100110000B08A0008B13831655309D00AA309D005C
:100120009C149C1891281C11831220088B046430A5
:10013000AF00472083169B019C131C141A08031957
:10014000BD2805150030831205190130AE00831655
:10015000051400308312051801302E020319BE2841
:1001600083168510831285100A30AE00DC30AF0094
:100170004720AE0BB6288316851483128316051507
:10018000C03083128B040B108A11292884011F3080
:1001900083051F1383161F109F101F119F11073017
:1001A000831299001F1383161F109F101F119F1198
:1001B00083121F1083160108C73908388100831283
:1001C0009001073099008316050803308312A000C0
:1001D000A00BE82819088C118316990183128B153E
:1001E00083161615851405150514C03083128B046B
:0601F0006300F828630023
:02400E009431EB
:00000001FF
;PIC12F675
